{
  "contractName": "dossiermedical",
  "abi": [
    {
      "anonymous": false,
      "inputs": [
        {
          "indexed": false,
          "internalType": "address",
          "name": "doctorId",
          "type": "address"
        }
      ],
      "name": "DoctorAdded",
      "type": "event"
    },
    {
      "anonymous": false,
      "inputs": [
        {
          "indexed": false,
          "internalType": "address",
          "name": "patientId",
          "type": "address"
        }
      ],
      "name": "PatientAdded",
      "type": "event"
    },
    {
      "anonymous": false,
      "inputs": [
        {
          "indexed": false,
          "internalType": "address",
          "name": "patientId",
          "type": "address"
        },
        {
          "indexed": false,
          "internalType": "address",
          "name": "doctorId",
          "type": "address"
        }
      ],
      "name": "RecordAdded",
      "type": "event"
    },
    {
      "inputs": [
        {
          "internalType": "address",
          "name": "",
          "type": "address"
        }
      ],
      "name": "doctors",
      "outputs": [
        {
          "internalType": "address",
          "name": "id",
          "type": "address"
        }
      ],
      "stateMutability": "view",
      "type": "function",
      "constant": true
    },
    {
      "inputs": [
        {
          "internalType": "address",
          "name": "",
          "type": "address"
        }
      ],
      "name": "patients",
      "outputs": [
        {
          "internalType": "address",
          "name": "id",
          "type": "address"
        }
      ],
      "stateMutability": "view",
      "type": "function",
      "constant": true
    },
    {
      "inputs": [
        {
          "internalType": "address",
          "name": "_patientId",
          "type": "address"
        }
      ],
      "name": "addPatient",
      "outputs": [],
      "stateMutability": "nonpayable",
      "type": "function"
    },
    {
      "inputs": [],
      "name": "addDoctor",
      "outputs": [],
      "stateMutability": "nonpayable",
      "type": "function"
    },
    {
      "inputs": [
        {
          "internalType": "string",
          "name": "_title",
          "type": "string"
        },
        {
          "internalType": "address",
          "name": "_patientId",
          "type": "address"
        }
      ],
      "name": "addRecord",
      "outputs": [],
      "stateMutability": "nonpayable",
      "type": "function"
    },
    {
      "inputs": [
        {
          "internalType": "address",
          "name": "_patientId",
          "type": "address"
        }
      ],
      "name": "getRecords",
      "outputs": [
        {
          "components": [
            {
              "internalType": "string",
              "name": "title",
              "type": "string"
            },
            {
              "internalType": "address",
              "name": "patientId",
              "type": "address"
            },
            {
              "internalType": "address",
              "name": "doctorId",
              "type": "address"
            },
            {
              "internalType": "uint256",
              "name": "timeAdded",
              "type": "uint256"
            }
          ],
          "internalType": "struct dossiermedical.Record[]",
          "name": "",
          "type": "tuple[]"
        }
      ],
      "stateMutability": "view",
      "type": "function",
      "constant": true
    },
    {
      "inputs": [],
      "name": "getSenderRole",
      "outputs": [
        {
          "internalType": "string",
          "name": "",
          "type": "string"
        }
      ],
      "stateMutability": "view",
      "type": "function",
      "constant": true
    },
    {
      "inputs": [
        {
          "internalType": "address",
          "name": "_patientId",
          "type": "address"
        }
      ],
      "name": "getPatientExists",
      "outputs": [
        {
          "internalType": "bool",
          "name": "",
          "type": "bool"
        }
      ],
      "stateMutability": "view",
      "type": "function",
      "constant": true
    }
  ],
  "bytecode": "0x608060405234801561001057600080fd5b5061194f806100206000396000f3fe608060405234801561001057600080fd5b50600436106100885760003560e01c806375a3f4e31161005b57806375a3f4e3146101135780637bc769ed1461011d578063a0076e841461014d578063a9583c221461017d57610088565b80630869cfbc1461008d578063172847b5146100bd5780633a88162e146100d95780636d263ceb146100f7575b600080fd5b6100a760048036038101906100a291906111e1565b6101ad565b6040516100b4919061121d565b60405180910390f35b6100d760048036038101906100d2919061137e565b6101eb565b005b6100e161053d565b6040516100ee9190611462565b60405180910390f35b610111600480360381019061010c91906111e1565b610720565b005b61011b61097a565b005b610137600480360381019061013291906111e1565b610b05565b604051610144919061149f565b60405180910390f35b610167600480360381019061016291906111e1565b610c6e565b6040516101749190611651565b60405180910390f35b610197600480360381019061019291906111e1565b61108e565b6040516101a4919061121d565b60405180910390f35b60006020528060005260406000206000915090508060000160009054906101000a900473ffffffffffffffffffffffffffffffffffffffff16905081565b3373ffffffffffffffffffffffffffffffffffffffff16600160003373ffffffffffffffffffffffffffffffffffffffff1673ffffffffffffffffffffffffffffffffffffffff16815260200190815260200160002060000160009054906101000a900473ffffffffffffffffffffffffffffffffffffffff1673ffffffffffffffffffffffffffffffffffffffff16146102bb576040517f08c379a00000000000000000000000000000000000000000000000000000000081526004016102b2906116bf565b60405180910390fd5b808073ffffffffffffffffffffffffffffffffffffffff166000808373ffffffffffffffffffffffffffffffffffffffff1673ffffffffffffffffffffffffffffffffffffffff16815260200190815260200160002060000160009054906101000a900473ffffffffffffffffffffffffffffffffffffffff1673ffffffffffffffffffffffffffffffffffffffff161461038b576040517f08c379a00000000000000000000000000000000000000000000000000000000081526004016103829061172b565b60405180910390fd5b600060405180608001604052808581526020018473ffffffffffffffffffffffffffffffffffffffff1681526020013373ffffffffffffffffffffffffffffffffffffffff1681526020014281525090506000808473ffffffffffffffffffffffffffffffffffffffff1673ffffffffffffffffffffffffffffffffffffffff16815260200190815260200160002060010181908060018154018082558091505060019003906000526020600020906004020160009091909190915060008201518160000190805190602001906104639291906110cc565b5060208201518160010160006101000a81548173ffffffffffffffffffffffffffffffffffffffff021916908373ffffffffffffffffffffffffffffffffffffffff16021790555060408201518160020160006101000a81548173ffffffffffffffffffffffffffffffffffffffff021916908373ffffffffffffffffffffffffffffffffffffffff1602179055506060820151816003015550507fcf46a95ed429f3df030a7824b5c00b7be7deb792b9e73ad3091d0648ba2a3f1c833360405161052f92919061174b565b60405180910390a150505050565b60603373ffffffffffffffffffffffffffffffffffffffff16600160003373ffffffffffffffffffffffffffffffffffffffff1673ffffffffffffffffffffffffffffffffffffffff16815260200190815260200160002060000160009054906101000a900473ffffffffffffffffffffffffffffffffffffffff1673ffffffffffffffffffffffffffffffffffffffff161415610612576040518060400160405280600681526020017f646f63746f720000000000000000000000000000000000000000000000000000815250905061071d565b3373ffffffffffffffffffffffffffffffffffffffff166000803373ffffffffffffffffffffffffffffffffffffffff1673ffffffffffffffffffffffffffffffffffffffff16815260200190815260200160002060000160009054906101000a900473ffffffffffffffffffffffffffffffffffffffff1673ffffffffffffffffffffffffffffffffffffffff1614156106e4576040518060400160405280600781526020017f70617469656e7400000000000000000000000000000000000000000000000000815250905061071d565b6040518060400160405280600781526020017f756e6b6e6f776e0000000000000000000000000000000000000000000000000081525090505b90565b3373ffffffffffffffffffffffffffffffffffffffff16600160003373ffffffffffffffffffffffffffffffffffffffff1673ffffffffffffffffffffffffffffffffffffffff16815260200190815260200160002060000160009054906101000a900473ffffffffffffffffffffffffffffffffffffffff1673ffffffffffffffffffffffffffffffffffffffff16146107f0576040517f08c379a00000000000000000000000000000000000000000000000000000000081526004016107e7906116bf565b60405180910390fd5b8073ffffffffffffffffffffffffffffffffffffffff166000808373ffffffffffffffffffffffffffffffffffffffff1673ffffffffffffffffffffffffffffffffffffffff16815260200190815260200160002060000160009054906101000a900473ffffffffffffffffffffffffffffffffffffffff1673ffffffffffffffffffffffffffffffffffffffff1614156108c0576040517f08c379a00000000000000000000000000000000000000000000000000000000081526004016108b7906117c0565b60405180910390fd5b806000808373ffffffffffffffffffffffffffffffffffffffff1673ffffffffffffffffffffffffffffffffffffffff16815260200190815260200160002060000160006101000a81548173ffffffffffffffffffffffffffffffffffffffff021916908373ffffffffffffffffffffffffffffffffffffffff1602179055507fa58cff07db0adda3ab7a40bd2f18ab57210bf38391a52ffd2e8eee6b8bdec71a8160405161096f919061121d565b60405180910390a150565b3373ffffffffffffffffffffffffffffffffffffffff16600160003373ffffffffffffffffffffffffffffffffffffffff1673ffffffffffffffffffffffffffffffffffffffff16815260200190815260200160002060000160009054906101000a900473ffffffffffffffffffffffffffffffffffffffff1673ffffffffffffffffffffffffffffffffffffffff161415610a4b576040517f08c379a0000000000000000000000000000000000000000000000000000000008152600401610a429061182c565b60405180910390fd5b33600160003373ffffffffffffffffffffffffffffffffffffffff1673ffffffffffffffffffffffffffffffffffffffff16815260200190815260200160002060000160006101000a81548173ffffffffffffffffffffffffffffffffffffffff021916908373ffffffffffffffffffffffffffffffffffffffff1602179055507f69908b2e63170aa89ef89719bbe3b4c92cccc38653968ab25f4464eff7c28ac833604051610afb919061121d565b60405180910390a1565b60003373ffffffffffffffffffffffffffffffffffffffff16600160003373ffffffffffffffffffffffffffffffffffffffff1673ffffffffffffffffffffffffffffffffffffffff16815260200190815260200160002060000160009054906101000a900473ffffffffffffffffffffffffffffffffffffffff1673ffffffffffffffffffffffffffffffffffffffff1614610bd7576040517f08c379a0000000000000000000000000000000000000000000000000000000008152600401610bce906116bf565b60405180910390fd5b8173ffffffffffffffffffffffffffffffffffffffff166000808473ffffffffffffffffffffffffffffffffffffffff1673ffffffffffffffffffffffffffffffffffffffff16815260200190815260200160002060000160009054906101000a900473ffffffffffffffffffffffffffffffffffffffff1673ffffffffffffffffffffffffffffffffffffffff16149050919050565b60603373ffffffffffffffffffffffffffffffffffffffff16600160003373ffffffffffffffffffffffffffffffffffffffff1673ffffffffffffffffffffffffffffffffffffffff16815260200190815260200160002060000160009054906101000a900473ffffffffffffffffffffffffffffffffffffffff1673ffffffffffffffffffffffffffffffffffffffff161480610d9857503373ffffffffffffffffffffffffffffffffffffffff166000803373ffffffffffffffffffffffffffffffffffffffff1673ffffffffffffffffffffffffffffffffffffffff16815260200190815260200160002060000160009054906101000a900473ffffffffffffffffffffffffffffffffffffffff1673ffffffffffffffffffffffffffffffffffffffff16145b610dd7576040517f08c379a0000000000000000000000000000000000000000000000000000000008152600401610dce90611898565b60405180910390fd5b818073ffffffffffffffffffffffffffffffffffffffff166000808373ffffffffffffffffffffffffffffffffffffffff1673ffffffffffffffffffffffffffffffffffffffff16815260200190815260200160002060000160009054906101000a900473ffffffffffffffffffffffffffffffffffffffff1673ffffffffffffffffffffffffffffffffffffffff1614610ea7576040517f08c379a0000000000000000000000000000000000000000000000000000000008152600401610e9e9061172b565b60405180910390fd5b6000808473ffffffffffffffffffffffffffffffffffffffff1673ffffffffffffffffffffffffffffffffffffffff168152602001908152602001600020600101805480602002602001604051908101604052809291908181526020016000905b828210156110825783829060005260206000209060040201604051806080016040529081600082018054610f3b906118e7565b80601f0160208091040260200160405190810160405280929190818152602001828054610f67906118e7565b8015610fb45780601f10610f8957610100808354040283529160200191610fb4565b820191906000526020600020905b815481529060010190602001808311610f9757829003601f168201915b505050505081526020016001820160009054906101000a900473ffffffffffffffffffffffffffffffffffffffff1673ffffffffffffffffffffffffffffffffffffffff1673ffffffffffffffffffffffffffffffffffffffff1681526020016002820160009054906101000a900473ffffffffffffffffffffffffffffffffffffffff1673ffffffffffffffffffffffffffffffffffffffff1673ffffffffffffffffffffffffffffffffffffffff16815260200160038201548152505081526020019060010190610f08565b50505050915050919050565b60016020528060005260406000206000915090508060000160009054906101000a900473ffffffffffffffffffffffffffffffffffffffff16905081565b8280546110d8906118e7565b90600052602060002090601f0160209004810192826110fa5760008555611141565b82601f1061111357805160ff1916838001178555611141565b82800160010185558215611141579182015b82811115611140578251825591602001919060010190611125565b5b50905061114e9190611152565b5090565b5b8082111561116b576000816000905550600101611153565b5090565b6000604051905090565b600080fd5b600080fd5b600073ffffffffffffffffffffffffffffffffffffffff82169050919050565b60006111ae82611183565b9050919050565b6111be816111a3565b81146111c957600080fd5b50565b6000813590506111db816111b5565b92915050565b6000602082840312156111f7576111f6611179565b5b6000611205848285016111cc565b91505092915050565b611217816111a3565b82525050565b6000602082019050611232600083018461120e565b92915050565b600080fd5b600080fd5b6000601f19601f8301169050919050565b7f4e487b7100000000000000000000000000000000000000000000000000000000600052604160045260246000fd5b61128b82611242565b810181811067ffffffffffffffff821117156112aa576112a9611253565b5b80604052505050565b60006112bd61116f565b90506112c98282611282565b919050565b600067ffffffffffffffff8211156112e9576112e8611253565b5b6112f282611242565b9050602081019050919050565b82818337600083830152505050565b600061132161131c846112ce565b6112b3565b90508281526020810184848401111561133d5761133c61123d565b5b6113488482856112ff565b509392505050565b600082601f83011261136557611364611238565b5b813561137584826020860161130e565b91505092915050565b6000806040838503121561139557611394611179565b5b600083013567ffffffffffffffff8111156113b3576113b261117e565b5b6113bf85828601611350565b92505060206113d0858286016111cc565b9150509250929050565b600081519050919050565b600082825260208201905092915050565b60005b838110156114145780820151818401526020810190506113f9565b83811115611423576000848401525b50505050565b6000611434826113da565b61143e81856113e5565b935061144e8185602086016113f6565b61145781611242565b840191505092915050565b6000602082019050818103600083015261147c8184611429565b905092915050565b60008115159050919050565b61149981611484565b82525050565b60006020820190506114b46000830184611490565b92915050565b600081519050919050565b600082825260208201905092915050565b6000819050602082019050919050565b600082825260208201905092915050565b6000611502826113da565b61150c81856114e6565b935061151c8185602086016113f6565b61152581611242565b840191505092915050565b611539816111a3565b82525050565b6000819050919050565b6115528161153f565b82525050565b6000608083016000830151848203600086015261157582826114f7565b915050602083015161158a6020860182611530565b50604083015161159d6040860182611530565b5060608301516115b06060860182611549565b508091505092915050565b60006115c78383611558565b905092915050565b6000602082019050919050565b60006115e7826114ba565b6115f181856114c5565b935083602082028501611603856114d6565b8060005b8581101561163f578484038952815161162085826115bb565b945061162b836115cf565b925060208a01995050600181019050611607565b50829750879550505050505092915050565b6000602082019050818103600083015261166b81846115dc565b905092915050565b7f53656e646572206973206e6f74206120646f63746f7200000000000000000000600082015250565b60006116a96016836113e5565b91506116b482611673565b602082019050919050565b600060208201905081810360008301526116d88161169c565b9050919050565b7f50617469656e7420646f6573206e6f7420657869737400000000000000000000600082015250565b60006117156016836113e5565b9150611720826116df565b602082019050919050565b6000602082019050818103600083015261174481611708565b9050919050565b6000604082019050611760600083018561120e565b61176d602083018461120e565b9392505050565b7f546869732070617469656e7420616c7265616479206578697374732e00000000600082015250565b60006117aa601c836113e5565b91506117b582611774565b602082019050919050565b600060208201905081810360008301526117d98161179d565b9050919050565b7f5468697320646f63746f7220616c7265616479206578697374732e0000000000600082015250565b6000611816601b836113e5565b9150611821826117e0565b602082019050919050565b6000602082019050818103600083015261184581611809565b9050919050565b7f53656e64657220646f6573206e6f742065786973740000000000000000000000600082015250565b60006118826015836113e5565b915061188d8261184c565b602082019050919050565b600060208201905081810360008301526118b181611875565b9050919050565b7f4e487b7100000000000000000000000000000000000000000000000000000000600052602260045260246000fd5b600060028204905060018216806118ff57607f821691505b60208210811415611913576119126118b8565b5b5091905056fea2646970667358221220645ee2f1ad9debd83a5864bc02c7a6397ba7fd0848ec242d4b8eeb0404ff08bb64736f6c63430008090033",
  "immutableReferences": {},
  "source": "// SPDX-License-Identifier: MIT\npragma solidity >=0.4.22 <0.9.0;\n\ncontract dossiermedical {\n  struct Record { \n  \n    string title; \n    address patientId;\n    address doctorId;\n    uint256 timeAdded;\n  }\n\n  struct Patient {\n    address id;\n    Record[] records;\n  }\n\n  struct Doctor {\n    address id;\n  }\n\n  mapping (address => Patient) public patients;\n  mapping (address => Doctor) public doctors;\n\n  event PatientAdded(address patientId);\n  event DoctorAdded(address doctorId);\n  event RecordAdded(address patientId, address doctorId); \n\n  // modifiers\n\n  modifier senderExists {\n    require(doctors[msg.sender].id == msg.sender || patients[msg.sender].id == msg.sender, \"Sender does not exist\");\n    _;\n  }\n\n  modifier patientExists(address patientId) {\n    require(patients[patientId].id == patientId, \"Patient does not exist\");\n    _;\n  }\n\n  modifier senderIsDoctor {\n    require(doctors[msg.sender].id == msg.sender, \"Sender is not a doctor\");\n    _;\n  }\n\n  // functions\n\n  function addPatient(address _patientId) public senderIsDoctor {\n    require(patients[_patientId].id != _patientId, \"This patient already exists.\");\n    patients[_patientId].id = _patientId;\n\n    emit PatientAdded(_patientId);\n  }\n\n  function addDoctor() public {\n    require(doctors[msg.sender].id != msg.sender, \"This doctor already exists.\");\n    doctors[msg.sender].id = msg.sender;\n\n    emit DoctorAdded(msg.sender);\n  }\n\n  function addRecord(string memory _title, address _patientId) public senderIsDoctor patientExists(_patientId) {\n    Record memory record = Record(_title, _patientId, msg.sender, block.timestamp);\n    patients[_patientId].records.push(record);\n\n    emit RecordAdded(_patientId, msg.sender);\n  } \n\n  function getRecords(address _patientId) public view senderExists patientExists(_patientId) returns (Record[] memory) {\n    return patients[_patientId].records;\n  } \n\n  function getSenderRole() public view returns (string memory) {\n    if (doctors[msg.sender].id == msg.sender) {\n      return \"doctor\";\n    } else if (patients[msg.sender].id == msg.sender) {\n      return \"patient\";\n    } else {\n      return \"unknown\";\n    }\n  }\n\n  function getPatientExists(address _patientId) public view senderIsDoctor returns (bool) {\n    return patients[_patientId].id == _patientId;\n  }\n} \n\n\n\n",
  "sourcePath": "C:\\Users\\HP\\Desktop\\dossiermedical\\contracts\\dossiermedical.sol",
  "compiler": {
    "name": "solc",
    "version": "0.8.9+commit.e5eed63a.Emscripten.clang"
  },
  "schemaVersion": "3.4.10",
  "updatedAt": "2022-11-13T15:50:41.819Z",
  "networkType": "ethereum",
  "devdoc": {
    "kind": "dev",
    "methods": {},
    "version": 1
  },
  "userdoc": {
    "kind": "user",
    "methods": {},
    "version": 1
  }
}